:020000040800F2
:1000000010040020F53A0008553A0008573A000855
:10001000493B00084D3B0008513B00080000000030
:10002000000000000000000000000000593A000835
:100030005B3A0008000000005D3A00085F3A0008E3
:10004000553B0008593B00085D3B0008613B000838
:10005000653B0008693B0008673A00086D3B0008F3
:10006000713B0008753B0008793B00087D3B0008A8
:10007000813B0008853B0008893B00088D3B000858
:10008000913B0008953B0008993B000800000000E8
:100090000000000000000000000000009D3B000880
:1000A000A13B0008A53B0008A93B0008AD3B0008A8
:1000B000B13B0008B53B0008B93B0008BD3B000858
:1000C000C13B0008C53B0008C93B0008CD3B000808
:1000D000D13B0008D53B0008D93B000800000000D8
:1000E000DD3B0008E13B0008E53B000800000000A4
:1000F000000000000000000000000000E93B0008D4
:1001000000000000ED3B0008F13B0008F53B000853
:1001100000000000000000000000000000000000DF
:10012000F93B0008FD3B0008013C0008053C0008C5
:10013000093C000800000000000000000000000072
:100140000000000000000000000000000D3C00085E
:10015000113C0008153C0008193C00081D3C000833
:10016000213C0008253C00080000000000000000C1
:10017000000000000000000000000000000000007F
:1001800000000000293C0008000000000000000002
:100190002D3C000838B504000025E278B4F80110C1
:1001A0002078C046C0462800C0B232BD38B5040031
:1001B0000025E278B4F801102078C046C046280037
:1001C000C0B232BD38B504000025E0880090A38895
:1001D000E278B4F801102078C046C0462800C0B2CA
:1001E00032BD38B5040000252078C046C04628003E
:1001F000C0B232BD2DE9F041A0B0040000252600B8
:100200000127002080463078804513DA06EB88000D
:10021000B0F80100694621F82800BF1C06EB8800F1
:10022000B0F80300694601EB88014880BF1C18F153
:100230000108E8E769463078C046C0462800C0B2E9
:1002400020B0BDE8F08138B5040000252078C04614
:10025000C0462800C0B232BD38B504000025B4F84D
:1002600001102078C046C0462800C0B232BD38B563
:10027000040000252078C046C0462800C0B232BD28
:1002800038B5040000252000C046C0462800C0B292
:1002900032BD2DE9F04389B004000025D4F82100D7
:1002A000D4F81D60D4F81970D4F815C0D4F811E052
:1002B000D4F80D80D4F80930D4F80520D4F8011012
:1002C00014F12609CDF81C9094F82590CDF81890DB
:1002D000059004960397CDF808C0CDF804E0CDF85A
:1002E00000802078C046C0462800C0B209B0BDE8F2
:1002F000F08338B504000025D4F802206178207816
:10030000C046C0462800C0B232BD38B50400002542
:10031000A21C61782078C046C0462800C0B232BD19
:1003200038B504000025A21C61782078C046C0467C
:100330002800C0B232BD38B504000025C046C04612
:100340002800C0B232BD38B504000025E278A1789B
:100350002088C046C0462800C0B232BD38B504006F
:1003600000252088C046C0462800C0B232BD38B53E
:10037000040000252088C046C0462800C0B232BD17
:1003800038B504000025C046C0462800C0B232BDC2
:1003900038B504000025C046C0462800C0B232BDB2
:1003A00038B504000025E31CA27861782078C046A7
:1003B000C0462800C0B232BD38B5040000252088F0
:1003C000C046C0462800C0B232BD38B50400002582
:1003D000D4F802102088C046C0462800C0B232BD02
:1003E00038B504000025A1782088C046C046280002
:1003F000C0B232BD38B50400002561882088C046EF
:10040000C0462800C0B232BD38B504000025E21C49
:10041000A1782088C046C0462800C0B232BD3EB593
:1004200004000025B4F80B000290B4F80900019014
:10043000B4F807000090B4F80530B4F80320A178B0
:100440002088C046C0462800C0B23EBD38B5040072
:100450000025A01D00906379B4F80320A1782088BE
:10046000C046C0462800C0B232BD38B504000025E1
:1004700014F108000090E388A28861882088C046B3
:10048000C0462800C0B232BD38B50400002520881F
:10049000C046C0462800C0B232BD38B504000025B1
:1004A00061882088C046C0462800C0B232BD38B539
:1004B00004000025231DE278A1782088C046C046AC
:1004C0002800C0B232BD2DE9F041A0B004000025E3
:1004D0002600032700208046B078804513DA06EB1B
:1004E0008800B0F80300694621F82800BF1C06EB1D
:1004F0008800B0F80500694601EB88014880BF1C00
:1005000018F10108E8E76A46B1783088C046C0466D
:100510002800C0B220B0BDE8F08138B50400002545
:10052000231DE278A1782088C046C0462800C0B2CA
:1005300032BD38B504000025E21CA1782088C046F1
:10054000C0462800C0B232BD38B504000025E21C08
:10055000A1782088C046C0462800C0B232BD38B558
:1005600004000025E21CA1782088C046C04628006F
:10057000C0B232BD38B504000025231DE278A17851
:100580002088C046C0462800C0B232BD38B504003D
:100590000025E01D0090A379A28861882088C046CC
:1005A000C0462800C0B232BD38B5040000252088FE
:1005B000C046C0462800C0B232BD38B50400002590
:1005C000631D227961882088C046C0462800C0B2D9
:1005D00032BD38B504000025631D2279618820886A
:1005E000C046C0462800C0B232BD38B50400002560
:1005F000A1782088C046C0462800C0B232BD38B5B8
:10060000040000256379B4F80320A1782088C0464F
:10061000C0462800C0B232BD38B504000025631DB5
:10062000227961882088C046C0462800C0B232BD09
:1006300038B504000025631D227961882088C046F2
:10064000C0462800C0B232BD38B504000025A288DB
:1006500061882088C046C0462800C0B232BD2DE95E
:10066000F041A0B0040000252600032700208046AA
:10067000B07880450ADA06EB4800B0F80300694616
:1006800021F81800BF1C18F10108F1E76A46B1789B
:100690003088C046C0462800C0B220B0BDE8F08116
:1006A00038B50400002561882088C046C04628006F
:1006B000C0B232BD38B5040000252088C046C0460F
:1006C0002800C0B232BD38B504000025E01D0090FE
:1006D000A379A28861882088C046C0462800C0B29D
:1006E00032BD30B585B004000025607C0490B4F8BC
:1006F0000F000390B4F80D000290B4F80B000190C5
:10070000601D00902379E278B4F801102078C0468B
:10071000C0462800C0B205B030BD2DE9F0419EB002
:1007200004000025260001270020804630788045FF
:100730004EDA0B2000FB08F0304440786946142262
:1007400002FB08F288547F1C0B2000FB08F03044A9
:1007500080786946142202FB08F2114448707F1C1D
:1007600006220B2000FB08F03044C11C684614230D
:1007700003FB08F31844801C00F0FAF8BF1D0B209F
:1007800000FB08F03044407A6946142202FB08F26C
:10079000114408727F1C0B2000FB08F030440A3023
:1007A0006946142202FB08F21144C8600B2000FBCA
:1007B00008F03044407AC719FFB2E05D6946142260
:1007C00002FB08F2114408747F1C18F10108ADE720
:1007D00069463078C046C0462800C0B21EB0BDE8A9
:1007E000F08138B504000025B4F807000090B4F893
:1007F0000530B4F80320B4F801102078C046C04694
:100800002800C0B232BD38B504000025E21CB4F89F
:1008100001102078C046C0462800C0B232BD38B5AD
:10082000040000256289A11C2088C046C04628001B
:10083000C0B232BD38B50400002520890090E3889D
:10084000A28861882088C046C0462800C0B232BD58
:1008500038B504000025611C2078C046C046280039
:10086000C0B232BD38B504000025611C2078C046F6
:10087000C0462800C0B232BD30B587B004000025A4
:10088000607F0690B4F81B000590B4F8190004903E
:10089000B4F81700039014F11100029014F10B004A
:1008A0000190601D00902379E278B4F8011020785F
:1008B000C046C0462800C0B207B030BD2DE9F041A7
:1008C000A0B00400002526000127002080463078D3
:1008D000804544DA5FEA08103044407869465FEAB0
:1008E000081288547F1C5FEA0810304480786946FB
:1008F0005FEA0812114448707F1C06225FEA081064
:100900003044C11C68465FEA08131844801C00F09C
:100910002FF8BF1D5FEA08103044407A69465FEA4D
:100920000812114408727F1C06225FEA0810304446
:1009300010F10A0168465FEA08131844093000F014
:1009400017F8BF1D5FEA08103044007C69465FEA73
:1009500008121144C8737F1C18F10108B7E76946F3
:100960003078C046C0462800C0B220B0BDE8F08153
:1009700070B504000D00160032002900200000F0C0
:100980000DF8200070BD70B504000D0016002A009F
:100990003100200000F03EF8200070BD62B38B07EC
:1009A00008D0521E11F8013B00F8013B00F02480F2
:1009B0008B07F6D1830740F0208000BF103A07D3A1
:1009C00030B4B1E83810103AA0E83810F9D230BC91
:1009D000530724BFB1E80810A0E8081044BF51F83D
:1009E000043B40F8043BD20724BF31F8022B20F827
:1009F000022B44BF0B7803707047083A07D3B1E865
:100A00000810083A40F8043B40F804CBF7D25307EB
:100A1000E4E7000062F30F2262F31F42401810F077
:100A2000030308D0C91A1FD3DB0748BF00F8012D04
:100A300028BF20F8022D130030B414461546103993
:100A400028BF20E93C00FAD8490728BF20E90C005C
:100A500048BF40F8042D890028BF20F8022D48BF68
:100A600000F8012D30BC7047C91818BF00F8012DDF
:100A7000CB0728BF00F8012D7047000010B5040017
:100A8000002C01D1012033E0A0690028FFD194F8A7
:100A90003900002805D1002084F83800200000F03B
:100AA00005FB242084F839002068C06830F4005029
:100AB0002168C860200000F00EF92068006930F459
:100AC0009040216808612068406930F02A00216860
:100AD00048612068C06850F400502168C860002058
:100AE000E063202084F83900202084F83A000020B8
:100AF00010BD10B50400002C01D1012011E024200C
:100B000084F83900200000F061FB0020E063002041
:100B100084F83900002084F83A00002084F8380076
:100B2000002010BD2DE9F84304000D0016001F0041
:100B30005FF0000994F8390020285FD1002D02D021
:100B4000B6B2002E01D1012059E094F838000128F6
:100B500001D1022053E0012084F838000020E06336
:100B6000212084F8390000F033FB8146A684E68416
:100B7000E08C00282FD0E08C401EE084A068B0F507
:100B8000805F18D100974B4600228021200000F0A2
:100B90006AF8002801D0032031E0A846B8F8000028
:100BA000C005C00D216848602069002801D1AD1C36
:100BB000DEE76D1CDCE700974B4600228021200019
:100BC00000F051F8002801D0032018E028782168AF
:100BD00048606D1CCCE700974B4600224021200066
:100BE00000F041F8002801D0032008E0202084F81C
:100BF0003900002084F83800002000E00220BDE821
:100C0000F28310B4030093F83A00202828D1002979
:100C100002D092B2002A01D1012022E093F83800DC
:100C2000012801D102201CE0012083F838009962DC
:100C30009A85DA850020D863222083F83A000020C4
:100C400083F838001868406950F001001C68606142
:100C50001868C06850F490701C68E060002000E0E4
:100C6000022010BC70472DE9F04104000D00160071
:100C70001F00DDF81880206800682840A84201D1D4
:100C8000012000E00020F6B2B04221D118F1010F9E
:100C9000F1D0B8F1000F04D000F09AFAC01B8045E3
:100CA000E9D22068C06830F4D0702168C86020683C
:100CB00040694008400021684861202084F83900DC
:100CC000202084F83A00002084F83800032000E057
:100CD0000020BDE8F0812DE9F843040000252068DC
:100CE0000069050035F44055E0680543206805615A
:100CF0002068C0680500BD480540A0682169084318
:100D000061690843E169084305432068C5602068BC
:100D10004069050035F44075A069054320684561C8
:100D2000E069B0F5004F40F0B0802068B0498842DB
:100D300003D02068AF49884253D100F002FB8146BE
:100D400000F0FFFA804600F0FCFA070000F0F9FA24
:100D5000060000F0F6FA192101FB09F16268520061
:100D6000B1FBF2F16422B1FBF2F1192202FB08F2AD
:100D700063685B00B2FBF3F2192303FB07F36768B8
:100D80007F00B3FBF7F36427B3FBF7F3642707FB9C
:100D90001322D20032326423B2FBF3F2520012F477
:100DA000F87212EB0111192202FB06F263685B0074
:100DB000B2FBF3F21923584363685B00B0FBF3F016
:100DC0006423B0FBF3F0642303FB1020C000323037
:100DD0006422B0FBF2F010F0070040182168886030
:100DE00000E100F0A3FA814600F0A0FA804600F08E
:100DF0009DFA070000F09AFA060000F097FA192110
:100E000001FB09F162685200B1FBF2F16422B1FB0F
:100E1000F2F1192202FB08F263685B00B2FBF3F205
:100E2000192303FB07F367687F00B3FBF7F364271D
:100E3000B3FBF7F3642707FB1322D200323264239B
:100E4000B2FBF3F2520012F4F87212EB0111192204
:100E500002FB06F263685B00B2FBF3F2192358430E
:100E600063685B00B0FBF3F06423B0FBF3F0642332
:100E700003FB1020C00032306422B0FBF2F010F00F
:100E80000700401821688860ACE020685849884213
:100E900003D020685749884252D100F052FA814667
:100EA00000F04FFA804600F04CFA070000F049FAD3
:100EB000060000F046FA192101FB09F16268920070
:100EC000B1FBF2F16422B1FBF2F1192202FB08F24C
:100ED00063689B00B2FBF3F2192303FB07F3676817
:100EE000BF00B3FBF7F36427B3FBF7F3642707FBFB
:100EF0001322120132326423B2FBF3F212F0F00239
:100F000012EB0111192202FB06F263689B00B2FB8F
:100F1000F3F21923584363689B00B0FBF3F064239A
:100F2000B0FBF3F0642303FB102000013230642295
:100F3000B0FBF2F010F00F0040182168886051E01B
:100F400000F0F4F9814600F0F1F9804600F0EEF986
:100F5000070000F0EBF9060000F0E8F9192101FBA9
:100F600009F162689200B1FBF2F16422B1FBF2F187
:100F7000192202FB08F263689B00B2FBF3F219230B
:100F800003FB07F36768BF00B3FBF7F36427B3FB0A
:100F9000F7F3642707FB1322120132326423B2FBFA
:100FA000F3F212F0F00212EB0111192202FB06F229
:100FB00063689B00B2FBF3F21923584363689B00FC
:100FC000B0FBF3F06423B0FBF3F0642303FB1020C9
:100FD000000132306422B0FBF2F010F00F00401834
:100FE00021688860BDE8F18300000000F369FFFF1D
:100FF000001001400014014000B593B000200090A3
:101000006C48006850F080506A4908606948006880
:1010100010F0805000900098002000906648006812
:1010200030F4404050F40040634908606248006872
:1010300010F4404000900098022006900120099092
:1010400010200A9002200C9000200D9010200E908D
:10105000C0200F90062010900420119006A800F0E8
:10106000D7F9002800D0FEE70F200190022002905F
:10107000002003900020049000200590012101A889
:1010800000F0ACF8002800D0FEE713B000BD80B53A
:1010900000F09AFBFFF7B0FF012000F039FC5FF48D
:1010A000E13000F024FE00F03FFE01BD10B586B037
:1010B000040020684149884239D10020009040480E
:1010C000006850F001003E4908603D48006810F09B
:1010D000010000900098002000903948006850F00E
:1010E0000100374908603648006810F001000090A0
:1010F0000098042001900220029001200390032018
:1011000004900720059001A92E4800F041FE082018
:1011100001900720059001A92A4800F039FE00221D
:101120000421262000F0CCFF262000F0DCFF206800
:10113000254988423BD1002000902148006850F0AA
:1011400001001F4908601E48006810F0010000906F
:101150000098002000901A48006850F001001849DB
:1011600008601748006810F00100009000984FF4E4
:101170000070019002200290002003900320049050
:101180000720059001A90F4800F002FE4FF480608F
:1011900001900720059001A90A4800F0F9FD0022FE
:1011A0000421252000F08CFF252000F09CFF06B0D4
:1011B00010BD000040380240007000400044004074
:1011C000303802400000024000100140704700002B
:1011D00001480068704700BF7407002070B5040024
:1011E0000D00002C01D101209CE05B48006810F04C
:1011F0000F00A84209D2584805705748006810F0FF
:101200000F00A84201D001208CE02078800719D57A
:101210002078400705D55148006850F4E0504F4908
:1012200008602078000705D54C48006850F46040FD
:101230004A4908604948006830F0F000A168084356
:10124000464908602078C00736D56068012805D176
:1012500043480068800313D4012063E060680228DB
:1012600002D06068032805D13D480068800107D49A
:10127000012057E03A480068800701D4012051E07E
:101280003648006880088000616808433349086078
:10129000FFF79EFF06003148006810F00C006168FF
:1012A000B0EB810F08D0FFF793FF801B41F289312B
:1012B0008842F0D3032035E02748006810F00F0083
:1012C000854209D2244805702348006810F00F00B9
:1012D000A84201D0012025E02078400707D51F480B
:1012E000006830F4E050E16808431C490860207849
:1012F000000708D51948006830F46040216950EAB9
:10130000C1001649086000F033F81649134A126804
:10131000C2F30312895CC84013490860002000F042
:1013200009FF002070BD10480068704780B5FFF7C6
:10133000FAFF0E49094A1268C2F38222895CC8404A
:1013400002BD80B5FFF7EFFF0849044A1268C2F3F7
:101350004232895CC84002BD003C0240083802406D
:1013600000380240E43A0008040000203C3B00083A
:10137000F0B500240026002700252148006810F061
:101380000C00002804D0042805D0082806D032E03C
:101390001C48050031E01C4805002EE01B48006891
:1013A00010F03F0004001948006840020CD51748AF
:1013B0000068C0F388101449A1FB0001220000233B
:1013C00000F0DEFE06000BE010480068C0F3881055
:1013D0000C49A1FB00012200002300F0D1FE060011
:1013E0000A480068C0F30140401C40000700B6FBFB
:1013F000F7F0050001E0034805002800F0BD00BF3C
:10140000083802400024F40040787D01043802408E
:1014100070B582B00400002C01D10120BEE120781B
:10142000C00769D5DFF87803006810F00C000428C5
:101430000BD0DFF86C03006810F00C0008280ED108
:10144000DFF860030068400209D5DFF85C0300683C
:10145000800351D5606800284ED101209EE160686C
:10146000B0F5803F08D1DFF84003006850F48030C9
:10147000DFF83413086020E06068B0F5A02F10D1C9
:10148000DFF82403006850F48020DFF81C130860A4
:10149000DFF81403006850F48030DFF80C130860A4
:1014A0000BE0C148006830F48030BF490860BE4896
:1014B000006830F48020BC490860606800280DD0C6
:1014C000FFF786FE0500B8480068800314D4FFF7D4
:1014D0007FFE401B6528F6D303205FE1FFF778FE0F
:1014E0000500B1480068800306D5FFF771FE401B78
:1014F0006528F6D3032051E12078800750D5A8480D
:10150000006810F00C0F09D0A548006810F00C001E
:10151000082816D1A3480068400212D4A2480068E7
:10152000800704D5E068012801D0012036E19E48FB
:10153000006830F0F800216950EAC1009A4908605B
:101540002EE0E06800281AD0012098490860FFF7D3
:101550003FFE050094480068800706D4FFF738FE78
:10156000401B0328F6D3032018E18F48006830F0B1
:10157000F800216950EAC1008B49086010E00020A2
:101580008A490860FFF724FE050087480068800745
:1015900006D5FFF71DFE401B0328F6D30320FDE010
:1015A0002078000724D56069002810D001208049E8
:1015B0000860FFF70DFE05007E480068800717D41D
:1015C000FFF706FE401B0328F6D30320E6E00020C9
:1015D00077490860FFF7FCFD050076480068800742
:1015E00006D5FFF7F5FD401B0328F6D30320D5E011
:1015F0002078400740F17F8000266F480068C000D7
:101600000FD4002000906C48006850F080506A4968
:1016100008606948006810F0805000900098012030
:10162000060066480068C00513D46448006850F49A
:10163000807062490860FFF7CBFD05005F480068D5
:10164000C00506D4FFF7C4FD401B0328F6D30320D2
:10165000A4E0A068012806D15948006850F00100B4
:10166000574908601BE0A06805280CD15448006861
:1016700050F00400524908605148006850F00100E1
:101680004F4908600BE04E480068400840004C4954
:1016900008604B48006830F0040049490860A068C1
:1016A00000280FD0FFF794FD05004548006880072B
:1016B00018D4FFF78DFD401B41F289318842F4D3E5
:1016C00003206BE0FFF784FD05003D4800688007BC
:1016D00008D5FFF77DFD401B41F289318842F4D3E4
:1016E00003205BE0F6B2012E05D13348006830F0EC
:1016F000805031490860A06900284ED02848006811
:1017000010F00C00082846D0A069022832D1002031
:101710002C490860FFF75CFD050023480068800144
:1017200006D5FFF755FD401B0328F6D3032035E00F
:10173000E069216A0843616A50EA8110A16A891E42
:10174000C903090C09040843E16A50EA016015491C
:10175000086001201B490860FFF73AFD05001248A8
:101760000068800119D4FFF733FD401B0328F6D32E
:10177000032013E0002013490860FFF729FD05004E
:1017800009480068800108D5FFF722FD401B0328A7
:10179000F6D3032002E0012000E0002076BD00BF68
:1017A0000838024004380240003802400000474236
:1017B000800E4742743802404038024000700040BA
:1017C000703802406000474280B50E48006850F40F
:1017D00000700C4908600B48006850F480600949AB
:1017E00008600848006850F48070064908600320CB
:1017F00000F060FC002000F09DFC00F005F80020E7
:1018000002BD0000003C02407047000081B0002093
:101810000090DFF82C04006850F00100DFF820147D
:101820000860DFF81C04006810F0010000900098C8
:1018300000200090DFF80804006850F00200DFF894
:1018400000140860DFF8F803006810F00200009050
:10185000009800200090DFF8E803006850F00100D5
:10186000DFF8DC130860DFF8D803006810F001002F
:101870000090009800200090DFF8C403006850F04A
:101880000100DFF8BC130860DFF8B403006810F053
:1018900001000090009800200090DFF8A403006889
:1018A00050F00100DFF898130860DFF89403006837
:1018B00010F001000090009800200090DFF88003F5
:1018C000006850F00100DFF878130860DFF870035B
:1018D000006810F001000090009800200090DFF8F0
:1018E0006403006850F48050DFF858130860DFF894
:1018F0005403006810F4805000900098002001B05C
:10190000704780B50121DFF8400300F024FB02BDE1
:1019100030B585B00400FFF779FF05006DB215F111
:10192000010F02D1280040B29BE008200090022065
:101930000190002002900320039005200490694646
:10194000DFF8080300F024FA402000900220019004
:101950000120029003200390052004906946DFF8DF
:10196000E80200F015FA802000900220019000208B
:10197000029003200390052004906946DFF8C80216
:1019800000F006FA02200090012001900020029051
:1019900003200390002004906946DFF8AC0200F0B9
:1019A000F7F901220221DFF8A00200F0E0FA01209D
:1019B0000090DFF89C020190022002900320039027
:1019C000002004906946DFF8800200F0E1F9DFF8BA
:1019D0008402DFF8841208604FF48270DFF8781216
:1019E00048600020DFF8701288600020DFF868127D
:1019F000C8600020DFF8601208610120DFF858128B
:101A000048614FF40070DFF8501288610020DFF861
:101A1000481208620020DFF8401248620720DFF811
:101A20003812C8622020DFF83012C861DFF82802BF
:101A300000F01EFCE4B2012C08D100220321062094
:101A400000F03EFB062000F04EFBFFE7DFF8080247
:101A50000068006850F04000DFF8FC110968086079
:101A6000002005B030BD80B5062000F043FB01BD6D
:101A700080B5062000F037FB01BD0120DFF8DC1146
:101A800008607047F0B585B004000D00002702A87B
:101A90007349D1E90023C0E9002372B60022022174
:101AA000694800F064FA05236A4602A96A4800F012
:101AB0002EFC9DF804009DF8031051EA002006005A
:101AC000B6B2002E10D02800C0B2310080B289B268
:101AD000884201D2EDB22E003200D2B221005E481F
:101AE00000F05CFC30000700FFF70BFF0028FBD183
:101AF00001220221544800F03AFA62B63800C0B21E
:101B000005B0F0BD2DE9F04786B004000D001600C9
:101B10001F005FF0000802A85349D1E90023C0E983
:101B20000023684600210022C0E900124D480068E9
:101B30000A21B0FBF1F104A800F051FC00220221BF
:101B4000414800F014FAFFF7DCFE002808D104A891
:101B500000F04DFC0028F6D07FF00100804630E018
:101B600005236A4602A93C4800F0D1FB9DF802001B
:101B70009DF8011051EA002082465046310080B2A3
:101B800089B2884203D27FF00100804619E032001A
:101B9000D2B22100304800F0E1FBBAEB060A504611
:101BA000390080B289B2884201D2D14600E0B946FC
:101BB0004A46D2B22900284800F0D0FB484600B27D
:101BC000804601220221204800F0D1F9404600B2AF
:101BD00006B0BDE8F0872DE9F04383B004000D00A6
:101BE00016001F005FF000091E4800680A21B0FBC4
:101BF000F1F1684600F0F3FBFFF735FF3B009BB2C5
:101C0000320092B25FFA89F905EB09012000FFF773
:101C100079FF8046B8F1000F08D400200600B7EB2A
:101C2000080718EB0909BFB2002F04D0684600F07E
:101C3000DEFB0028E2D0FFF71BFFBDE8F7830000C2
:101C400030380240443802400000024000040240A4
:101C50000000111000300140CC060020143C01406F
:101C60002C3B0008443B0008343B000810B582B010
:101C70000400002000902448006850F400302249FD
:101C800008602148006810F40030009000981F4858
:101C90001F4908601E48FEF72CFF1D4844600020C5
:101CA0001B49886000201A49C86000201849086153
:101CB0000020174988610C20154948611448FEF737
:101CC000DDFE012213491248FEF79BFF13BD1048A9
:101CD000006800680006FAD5704701B5FFF7F7FF06
:101CE0000523012269460A48FEF71CFF01BD10B515
:101CF00004002000FFF7BAFF10BD10B5040020005B
:101D0000C0B2FFF7EAFF10BD403802400044004077
:101D1000240700207807002010B504002000C0B27E
:101D2000FFF7EBFF200010BD00B585B04FF48070C9
:101D300000900120019000200290002003900020DC
:101D400004906946114800F023F800F017F805B038
:101D500000BD80B500224FF480710C4800F007F9F7
:101D6000052000F053FB01224FF48071074800F07A
:101D7000FEF8052000F04AFB00BF01BD80B500223F
:101D80004FF48071014800F0F2F801BD00000240FC
:101D9000F8B400230024002500263200102A80F029
:101DA000D8800126964033000E681E4034009C42C5
:101DB00040F0CD804E68022E02D04E68122E16D111
:101DC000D60800EB8606366A35000F2612F00707A4
:101DD000FFB2BF00BE40B5430E6912F00707FFB265
:101DE000BF00BE403543D60800EB86063562066864
:101DF000350003261700FFB27F00BE40B5430E79C1
:101E000016F003061700FFB27F00BE4035430560A1
:101E10004E68012E08D04E68022E05D04E68112E55
:101E200002D04E68122E19D186683500032617009D
:101E3000FFB27F00BE40B543CE681700FFB27F00FF
:101E4000BE40354385604668350001269640B5435F
:101E50004E68C6F30016964035434560C6683500A7
:101E600003261700FFB27F00BE40B5438E681700FF
:101E7000FFB27F00BE403543C5604E68F60066D5B0
:101E800000260096464E366856F48046444F3E6023
:101E9000434E366816F480460096009E414E9708E1
:101EA00056F8276035000F2612F00307FFB2BF0077
:101EB000BE40B5433C4EB04201D1002614E03B4E3B
:101EC000B04201D101260FE0394EB04201D10226C5
:101ED0000AE0384EB04201D1032605E0364EB0424A
:101EE00001D1042600E00726F6B212F00307FFB284
:101EF000BF00BE4035432B4E970846F827502F4E63
:101F000036683500A5434E68F60300D525432B4EB1
:101F100035602B4E36683500A5434E68B60300D5B4
:101F20002543274E3560274E36683500A5434E6859
:101F3000F60200D52543234E3560234E3668350022
:101F4000A5434E68B60200D525431F4E3560521C8E
:101F500024E7F1BC70470200136989B20B4202D03A
:101F60000123180001E000231800C0B27047D2B26C
:101F7000002A02D089B2816102E089B20B04836138
:101F8000704710B5040011480068A4B2204206D082
:101F9000A4B20E480460200080B200F04BFA10BDDD
:101FA000443802400838014000000240000402406A
:101FB00000080240000C024000100240003C0140BA
:101FC000043C0140083C01400C3C0140143C0140F1
:101FD00010F007024E4B1B6819004FF6FF03194023
:101FE0004C4B53EA02231943494B19607047484848
:101FF0000068C0F302207047012110F01F029140D9
:10200000454A40B2430942F823107047012110F0BD
:102010001F029140414A40B2430942F823107047E1
:1020200010B440B2002808D50A013D4B40B210F070
:102030000F04234403F8042C03E00A01394B40B297
:102040001A5410BC704770B4030013F00704D4F1A5
:102050000706052E01D3042001E0D4F10700261D58
:10206000072E01D2002500E0E51E012616FA00F039
:10207000401E0840A8400121A940491E11400843C4
:1020800070BC704710B50400601EB0F1807F01D3B2
:1020900001200EE0601E244908600F215FF0FF3030
:1020A000FFF7BEFF00202149086007202049086093
:1020B000002010BD10B504002000FFF789FF10BDFF
:1020C000F8B504000D0016000027FFF790FF070089
:1020D000320029003800FFF7B6FF0100200040B2AF
:1020E000FFF79EFFF1BD10B50400200040B2FFF7DE
:1020F00083FF10BD10B50400200040B2FFF786FF3B
:1021000010BD10B504002000FFF7BCFF10BD00009B
:102110000CED00E00000FA0500E100E080E100E0E5
:1021200018ED00E000E400E014E000E018E000E05A
:1021300010E000E010B504004FF47A700D49097802
:10214000B0FBF1F00C490968B1FBF0F0FFF7D9FFE3
:10215000002801D001200CE0102C09D2002221001F
:102160005FF0FF30FFF7ACFF04480460002000E0A0
:10217000012010BD08000020040000200000002005
:102180001B4213D1094236D12AB18446B0FBF2F08A
:1021900002FB10C2704700F053B9FCD300220023A9
:1021A00070470B000200002100207047904271EB45
:1021B000030CF6D370B5B1FA81F4B3FA83F52C1B96
:1021C000A340C4F1200532FA05F63343A2405FF084
:1021D0000046E64002E05B085FEA3202841A71EBD7
:1021E000030524BF204629467641F4D302000B00A4
:1021F0003000002170BD012ACFD970B5140C20D059
:10220000B1FA81F4B2FA82F5C4F120046419B4F190
:102210002006D6D3B2405FF00044F440002502E02F
:1022200052085FEA3303C61A71EB020E24BF304630
:10223000714664416D41F3D302000B002000290078
:1022400070BD0C46B1FBF2F102FB11452D0445EACD
:102250001045B5FBF2F402FB145580B240EA054587
:10226000B5FBF2F002FB105240EA044070BD0000E2
:1022700010B50400002C01D101203FE0606A002865
:102280000020A06294F85100002805D1002084F8B5
:102290005000200000F033F8022084F8510020683C
:1022A000006830F04000216808606068A168084359
:1022B000E16808432169084361690843A16911F491
:1022C00000710843E1690843216A0843A16A084391
:1022D00021680860A069000C10F00400616A0843DE
:1022E000216848602068C06930F400602168C861D6
:1022F00000206065012084F85100002010BD704767
:102300000268117370470068C068C0B270472DE959
:10231000F0410400884615001E0000200700380028
:102320003100C0B2C9B2884215D298F8001020001E
:10233000FFF7E6FF18F10108206880688007FBD5E9
:1023400020688068C007FBD52000FFF7DCFF2870FD
:102350006D1C7F1CE3E70020BDE8F081F8B50400A8
:102360000F0015000020060030002900C0B2C9B2DD
:10237000884211D239782000FFF7C2FF7F1C206805
:1023800080688007FBD520688068C007FBD52000E7
:10239000FFF7B9FF761CE7E70020F2BDF8B50400AF
:1023A0000D0016000020070038003100C0B2C9B28D
:1023B000884212D200212000FFF7A2FF2068806827
:1023C0008007FBD520688068C007FBD52000FFF799
:1023D0009AFF28706D1C7F1CE6E70020F2BD38B51F
:1023E00004000D00656000F02CF8206031BD10B5D0
:1023F000040000F026F82168401A401C6168814200
:1024000001D2012000E00020C0B210BD70B5040070
:10241000FEF7DEFE0500260016F1010F02D004488B
:1024200000783618FEF7D4FE401BB042FAD370BDD8
:102430000800002010B5040000F0B8F810BD00003E
:10244000704780B5FEF7C4FE02BD000038B5002518
:10245000DFF82C0400F022FADFF8280400F01EFA5E
:1024600000200400E4B2052C0CDADFF81C04E4B20E
:102470008C2101FB04F10144DFF8040400F020FA90
:10248000641CEFE7FFF765FC2800C0B232BD010015
:1024900011F108021078042801D0012008E090789A
:1024A00091F88830DB1E984201D0022000E0002025
:1024B00070472DE9F04182B000200090FFF7D3FA79
:1024C000DFF8C00300F0EDF90500EDB2002D62D198
:1024D0006946DFF8B00300F001FAFFF7C9FA009887
:1024E00010F10806307804284AD1771C38783E2845
:1024F00018D117F10208002004000A2C40D298F8E5
:102500000000DFF8881331F8341080B2884207D118
:1025100018F10100DFF8741301EBC4014968884722
:10252000641CEAE73878FF2817D117F10208002069
:1025300004002B2C24D2B8F80000DFF8541331F833
:102540003410884207D118F10200DFF8441301EB80
:10255000C40149688847641CEBE700200400072C8D
:102560000ED23878CB4931F8341080B2884205D188
:10257000B81CC84901EBC40149688847641CEEE7F0
:10258000FFF771FA0099BE4800F09AF9BD4800F0D3
:1025900088F9050099E700F009F8FFF769FABDE846
:1025A000F38180B5B74800F07CF902BD10B582B068
:1025B00000200090FFF761FAFFF7A3F9002827D069
:1025C000AF4800F06EF9002822D16946AC4800F00F
:1025D00085F9802100980830FFF754FA0400E4B22E
:1025E000002C11D0009880F888400098FFF74FFF2A
:1025F000002804D10099A34800F062F908E000998E
:102600009F4800F056F903E000999D4800F051F909
:1026100013BDF8B504000D0016001F00FFB23B000B
:102620009BB2F6B2320092B229002000FFF7D3FA33
:10263000F1BDF0B583B004000D0016001F00A80521
:10264000800D50EA8420ADF804008DF8066001206A
:102650008DF80000032201A90DF10100FEF788F9B1
:102660003300DBB2042239006846FFF7D2FFF7BD22
:1026700038B504000D00280000F013F9002808D137
:102680006946280000F039F90099200000F011F99E
:10269000F1E731BD80B5FFF7E6F9794800F03CF984
:1026A00002280ADA6946774800F018F90099744858
:1026B00000F006F9FFF77AFFEFE7FFF7D9F901BD60
:1026C0002DE9F04F89B004000D0060888005800D71
:1026D000218850EA8126704800680A21B0FBF1F891
:1026E0000020009004A800F0D9F8FFF7D3FFA368FA
:1026F000E0680200D2B261882088FFF79AFFEDB24D
:10270000002D01D00020B8E0B8F1000F01D1012068
:102710008046414606A8FFF762FE06A8FFF767FE5F
:10272000002840F08F80FFF73CFF0028F5D1FFF72D
:102730009AF96946534800F0D1F80098083007002C
:102740003878042862D1781C039000980B308246B8
:10275000009890F88800C01E8346039800780E28E1
:1027600022D00F2804D010284FD03E2836D04DE07C
:10277000D146B9F80200310089B2884262D160685E
:102780000F2804D099F8000000285BD13EE0606972
:10279000834501DA584600E060696061626951462C
:1027A0002069FEF7E5F85DE0CDF808A00298B0F8E2
:1027B0000100310089B2884244D11AF1030ABBF109
:1027C000030B6069834501DA584600E06069606187
:1027D000626951462069FEF7CBF843E0CDF804A0CA
:1027E000019800786168884210D1BBF1010B6069E3
:1027F000834501DA584600E06069606162690198CA
:10280000411C2069FEF7B4F82CE01BE01C4800F0E6
:1028100048F800280BD01B4800F043F8002806D0E9
:102820000099174800F04CF80020009005E000994E
:1028300004A800F045F800200090FFF7B7FEFFF76E
:1028400017F96AE70098002803D000990C4800F0B7
:1028500030F804A90B48FFF70BFFFFF709F95FF009
:10286000FF300AE00099064800F023F804A9054863
:10287000FFF7FEFEFFF7FCF8002009B0BDE8F08F7F
:10288000640700206C0700201004002014360008A4
:1028900050340008A4360008443B00080060406043
:1028A00070470168814201D1012000E00020C0B2E0
:1028B000704702680A60486001600A6851607047AA
:1028C000086042684A6041604A6811607047016868
:1028D00042681160416802685160704738B5040071
:1028E0000D00206828602068FFF7F1FF00202968AC
:1028F000086000202968486031BD38B504000D002B
:10290000606828606068FFF7E2FF002029680860BF
:1029100000202968486031BD010000200A688A4211
:1029200002D0401C1268FAE7704700002DE9F04F12
:1029300093B0804602AE002017461D460291B0615A
:102940000DF130090AE017F8011B0298C047002872
:10295000029000F0AA81B069401CB0613878010093
:1029600001D1B069A3E12528EDD10020F0603061EC
:10297000706101E040F0010017F8011F2029F9D033
:1029800023290DD02B2904D02D2906D030290AD097
:102990000CE040F0020080B2EEE740F00400FAE7FD
:1029A00040F00800F7E740F01000F4E72A290ED1C4
:1029B0002968296051F8042B2960002A326204D565
:1029C000514240F00400316280B27F1C13E00021CC
:1029D00031620BE0316A6FF00043994205D001EBA0
:1029E000810302EB4301303931627F1C3A78A2F156
:1029F00030010A29EED339782E2903D04FF0FF3168
:102A0000F1611FE017F8011F2A2907D12968296001
:102A10007F1C51F8042B2960F26113E00021F16161
:102A20000BE0F1696FF00043994205D001EB81039F
:102A300002EB43013039F1617F1C3A78A2F1300199
:102A40000A29EED3B0840FF2B430397800F0DAF905
:102A500008B117F8010B8DF82E009DF82E0068289C
:102A600004BF3878682803D162208DF82E007F1CBF
:102A70000CA8B06017F8014B252C13D0582C3CD073
:102A8000632C00F09480642C18BF692C6DD06F2CDF
:102A900033D0702C27D0732C0AD0752C18BF782C0B
:102AA0002BD08EE00120F06025208DF8300092E0E0
:102AB0002868286050F8044B28607460D6F81CA081
:102AC000BAF1000F04D5204600F0A8F9824607E0CD
:102AD00052460021204600F0BDF908B1A0EB040ADF
:102AE000C6F810A077E02868286050F8041B28601A
:102AF00001910CA87060782155E09DF82E006C289B
:102B00000DD0712818BF6A2809D12868C01D20F08F
:102B100007022A60D2E9000108322A6004E029682D
:102B2000296051F8040B296001909DF82E00682857
:102B300002D101A8008803E0622802D101A8007830
:102B4000019096F82400000728D5019830B344F08E
:102B50002000782822D1F068302109F80010401CAC
:102B6000411CF16009F8004018E09DF82E0029464C
:102B700000F0A0F80028019002D5F0682D2109E0AE
:102B8000B08C810702D5F0682B2103E0C00705D582
:102B9000F068202109F80010401CF0600CA8F168D2
:102BA00008447060214601A800F0AAF813E0012053
:102BB000F0602868286050F8041B28608DF83010F9
:102BC00009E00120F06025208DF830001CB10220C2
:102BD000F06089F80140306AF168401A7169401A62
:102BE0003169441A96F82400400710D42020012CA3
:102BF0008DF800000BDBA24601236A4601A940467E
:102C000000F0E5F8002850D1BAF1010AF4D1D6F865
:102C10000CB0BBF1000F0DF1300A0CD01AF8011BFB
:102C20000298C047002802903FD0B069401CBBF119
:102C3000010BB061F2D1D6F814A03020BAF1010F27
:102C40008DF8000009DB01236A4601A9404600F027
:102C5000BEF850BBBAF1010AF5D1D6F810B0D6F8DB
:102C600004A0BBF1000F0BD01AF8011B0298C0475B
:102C70000290D0B1B069401CBBF1010BB061F3D13F
:102C800096F8240040077FF569AE2020012C8DF8CE
:102C90000000FFF663AE01236A4601A9404600F03A
:102CA00096F810B9641EF6D158E64FF0FF3013B015
:102CB000BDE8F08F622815D068280CD06C2818BFAA
:102CC000742816D07A2814D10A680A6052F8040BC6
:102CD0000A60002170470A680A6052F8040B0A6013
:102CE00000B20BE00A680A6052F8040B0A6040B2B6
:102CF00004E00A680A6052F8040B0A60C1177047C2
:102D0000F0B4C2686F2908BF082405D041F0200341
:102D1000782B14BF0A24102418230668642918BFCE
:102D20006929374602D1002E48BF7F425FB9056A44
:102D30004DB9082C27D190F82810090723D5302148
:102D40001723D1751FE0B7FBF4F604FB1677303775
:102D5000FFB25D1E3A2FA4BFA1F1510C6744575535
:102D60002B46370003D08568D618B542EBD3082C24
:102D700009D190F82810090705D5D15C302902D077
:102D80005B1E3021D1541A448260C3F11801026ADB
:102D90004161914208DA511A81614FF6EF72018D5B
:102DA00011400185F0BC7047002A0ED590F828200C
:102DB00002F01402102A08D1426A0369D21A836908
:102DC000D21A531A012BA8BF8361F0BC7047F8B523
:102DD00004460D4616461F46002077B116F8011B23
:102DE0006868A047686030B1E869401CE86100206D
:102DF0007F1EF3D1F2BD4FF0FF30F2BD686C747AE4
:102E00004C0000000278C9B28A421AB11CBF10F807
:102E1000012FF9E718BF00207047000000F10103FF
:102E2000810704D010F8011B89B18107FAD102682B
:102E3000B2F10131914311F0803F04BF50F8042FEB
:102E4000F6E710F8011B11B110F8011BFBE7C01ADF
:102E500070470000C9B2830706D0521E22D310F873
:102E6000013B9942F7D11FE0083A13D302F1040263
:102E700041EA012141EA014150F8043B121F21BF00
:102E80004B40A3F1013C2CEA030C1CF0803FF3D033
:102E9000C9B2001F083210F8013B521E28BF91EA48
:102EA000030FF8D818BF0120401E704710B586B038
:102EB00004A85C49D1E90023C0E9002304210120D2
:102EC00000F018F90400E4B2002C05D0E4B22100AF
:102ED000554800F041F9FEE7544800F03DF904AAD6
:102EE0000621002000F0C4F80400E4B2002C05D054
:102EF000E4B221004E4800F02FF9FEE74D4800F003
:102F00002BF900F03BF90400E4B2002C05D0E4B248
:102F10002100494800F020F9FEE7484800F01CF97C
:102F200002A801900DF10A00009003AB08220021D5
:102F3000012000F0CEF90400E4B2002C05D0E4B288
:102F400021003F4800F008F9FEE73E4800F004F990
:102F500006B010BD10B590B0002407A83A49202251
:102F6000FDF72CFD0021002000F03CFA0400E4B243
:102F7000002C05D0E4B22100344800F0EDF8FEE763
:102F8000334800F0E9F8002006900020059000206A
:102F90000490002003900020029000200190002067
:102FA00000900023A022A021032000F00EF90400CD
:102FB000E4B2002C05D0E4B22100264800F0CCF8A1
:102FC000FEE7254800F0C8F807A91E2000F0D4F954
:102FD0000400E4B2002C05D0E4B221001F4800F048
:102FE000BBF8FEE71E4800F0B7F810B010BD10B5F2
:102FF000FEF74DF8FFF72AFA0400E4B2002C05D0E2
:10300000E4B22100174800F0A7F8FEE7FFF74EFFF3
:10301000FFF7A0FF1449154800F09EF8FFF749FAA2
:10302000FCE700001C3B0008443700083438000867
:10303000743700086038000864390008F439000863
:1030400088390008143A0008343A0008A437000808
:103050008C380008D4370008B83800080438000855
:10306000E4380008DC360008243B0008103700086C
:103070002DE9F041C8B004000D00160007AF002094
:103080008DF800005FF000083C7018F101087D70B9
:1030900018F10108EDB22A003100B81CFDF768FCF8
:1030A00015EB08081822002101A8FDF76CFC3F2051
:1030B000ADF804000C20ADF8060007A803905FFAF5
:1030C00088F8CDF810806846059001200690002110
:1030D00001A8FFF7F5FA002801D5FF2007E09DF8C9
:1030E0000000002802D09DF8000000E0002048B059
:1030F000BDE8F081F0B5C9B004000D0007AE0020B6
:103100008DF80000002734707F1C75707F1C18221A
:10311000002101A8FDF737FC3F20ADF804000F2087
:10312000ADF8060007A80390FFB204976846059023
:1031300001200690002101A8FFF7C2FA002801D55E
:10314000FF2007E09DF80000002802D09DF8000055
:1031500000E0002049B0F0BD0EB400B582B003A974
:10316000009102466B460121034878440A30FFF77C
:10317000DDFB06BC5DF810FB5509000000B587B00B
:1031800000208DF800001822002101A8FDF7FBFBAC
:103190003F20ADF8040040F20110ADF8060068468B
:1031A000059001200690002101A8FFF789FA002868
:1031B00001D5FF2007E09DF80000002802D09DF80F
:1031C000000000E0002007B000BD2DE9FF4FC9B0AE
:1031D000579C599DDDF868815B9E5C9F0DF120092D
:1031E00008A8E4B220440830019008A8E4B22044C2
:1031F000EDB2284410F1090A00208DF800005FF0BC
:10320000000B9DF8240189F800001BF1010BBDF8AB
:103210002801A9F801001BF1020BBDF82C01A9F847
:1032200003001BF1020B9DF8300189F805001BF12A
:10323000010B9DF8580189F806001BF1010B89F874
:1032400007401BF1010BE4B22200589919F1080064
:10325000FDF78EFB14EB0B0B019805701BF1010BB6
:10326000EDB22A0041460198401CFDF781FB15EBA9
:103270000B0BAAF800601BF1020BAAF802701BF1FD
:10328000020B1822002102A8FDF77DFB3F20ADF8BC
:1032900008008320ADF80A0008A804905FFA8BFBB1
:1032A000CDF814B06846069001200790002102A8CE
:1032B000FFF706FA002801D5FF2007E09DF800007F
:1032C000002802D09DF8000000E000204DB0BDE8CD
:1032D000F08F2DE9F04FC9B004000D0016001F005B
:1032E000DDF84881DDF84C910DF1200A072200211C
:1032F0006846FDF748FB5FF0000B8AF800401BF1C1
:10330000010B8AF801501BF1010B8AF802601BF1D6
:10331000010B1822002102A8FDF735FB3F20ADF874
:1033200008008A20ADF80A0008A804905FFA8BFB19
:10333000CDF814B06846069007200790002102A837
:10334000FFF7BEF9002801D5FF2012E09DF800002C
:10335000002802D09DF800000BE0BDF80100388085
:10336000BDF80300A8F80000BDF80500A9F80000AA
:10337000002049B0BDE8F08FF0B5C9B004000D00E1
:1033800007AE00208DF80000002734707F1C1F223C
:103390002900701CFDF7ECFA1F371822002101A844
:1033A000FDF7F1FA0820ADF804000820ADF806009A
:1033B00007A80390FFB20497684605900120069085
:1033C000002101A8FFF77CF9002801D5FF2007E0C4
:1033D0009DF80000002802D09DF8000000E00020C9
:1033E00049B0F0BDF0B5C9B004000D0007AE002033
:1033F0008DF80000002734707F1C1F222900701CEC
:10340000FDF7B6FA1F371822002101A8FDF7BBFA15
:103410000820ADF804000920ADF8060007A80390C5
:10342000FFB204976846059001200690002101A88C
:10343000FFF746F9002801D5FF2007E09DF80000BE
:10344000002802D09DF8000000E0002049B0F0BD47
:10345000010000006F020008020000008102000865
:10346000030000009302000804000000F3020008BB
:10347000050000000B0300080600000021030008FF
:10348000000400003703000801040000470300089F
:10349000020400005D030008030400006F0300083D
:1034A00004040000810300080504000091030008E3
:1034B00007040000A103000808040000B903000885
:1034C00009040000CB0300080A040000E10300081F
:1034D00000080000F50300080108000009040008C6
:1034E000020800001F0400080A0800004D0400083C
:1034F000010C00006B040008020C000089040008A5
:10350000030C00009B040008040C0000AF0400083A
:10351000050C0000C7040008060C00001B0500088D
:10352000070C000033050008080C000049050008DE
:10353000090C00005F0500080A0C00007505000872
:103540000C0C00008D0500080D0C0000A9050008FA
:103550000E0C0000BB0500080F0C0000D30500088E
:10356000100C0000EB050008110C0000FF0500081E
:10357000120C000019060008130C000031060008A8
:10358000140C000049060008150C00005F06000836
:10359000160C0000A1060008170C0000B506000874
:1035A000180C0000C70600081248006850F47000AC
:1035B000104908601048006850F001000E4908608A
:1035C00000200E4908600C4800680D4908400A496F
:1035D00008600C480C4908600748006830F48020F7
:1035E000054908600020094908605FF0006008494B
:1035F0000860704788ED00E000380240083802405B
:10360000FFFFF6FE10300024043802400C38024060
:1036100008ED00E001000000E306000802000000E1
:103620001B07000803000000E30700080400000077
:1036300007080008050000001F0800080700000038
:1036400035080008080000005108000809000000C3
:10365000650800080A000000790800080B00000057
:10366000BD08000819E050F8041BCB0744BFA9F1BE
:1036700001035918121F0023042A41F8043BF9D210
:103680005FEA827C0B4604D54FF0000CA1F800C025
:103690009B1CD10744BF0021197050F8042B002A4D
:1036A000E1D1704705000000950100080800000006
:1036B000AD0100080C000000C5010008100000006A
:1036C000E301000813000000F50100081A000000E3
:1036D0004702000830000000590200084572726F6E
:1036E0007220696E20426C75654E52475F5374615B
:1036F000636B5F496E697469616C697A6174696F43
:103700006E2829203078253032780D0A000000001C
:10371000426C75654E52472D3120424C4520426522
:1037200061636F6E204170706C69636174696F6E64
:10373000202876657273696F6E3A202573290D0A09
:10374000000000004572726F7220696E206163692B
:103750005F68616C5F7365745F74785F706F7765C5
:10376000725F6C6576656C28292030782530347856
:103770000D0A00004572726F7220696E20616369E4
:103780005F68616C5F77726974655F636F6E6669AD
:10379000675F64617461282920307825303478723D
:1037A0000A0000004572726F7220696E20686369BA
:1037B0005F6C655F7365745F7363616E5F72657381
:1037C000705F646174612829203078253034780D69
:1037D0000A0000004572726F7220696E2061636991
:1037E0005F6761705F7365745F646973636F76654B
:1037F0007261626C652829203078253034780D0A92
:10380000000000004572726F7220696E2068636963
:103810005F6C655F7365745F61647665727469730C
:10382000696E675F646174612829203078253034BF
:10383000780D0A006163695F68616C5F7365745F2E
:1038400074785F706F7765725F6C6576656C282938
:10385000202D2D3E20535543434553530D0A000060
:103860006163695F68616C5F77726974655F636FDC
:103870006E6669675F646174612829202D2D3E2082
:10388000535543434553530D0A0000006863695F75
:103890006C655F7365745F7363616E5F726573708F
:1038A0005F646174612829202D2D3E2053554343C8
:1038B0004553530D0A0000006163695F6761705FE3
:1038C0007365745F646973636F76657261626C655A
:1038D0002829202D2D3E20535543434553530D0A8F
:1038E000000000006863695F6C655F7365745F6109
:1038F00064766572746973696E675F646174612868
:1039000029202D2D3E20535543434553530D0A0086
:1039100010B450F8041B79B10268436802440830BF
:10392000DC0744BFA9F10104E31852F8044B43F843
:10393000044B091FF9D1ECE710BC704710B50749DB
:1039400079441831064C7C44163404E00A68081D9A
:10395000114488470146A142F8D110BD740000000F
:10396000940000004572726F7220696E2061636975
:103970005F676174745F696E6974282920307825E7
:103980003034780D0A0000004572726F7220696E43
:10399000206163695F6761705F696E6974282920BF
:1039A000307825303478720A000000004EF68851D5
:1039B000CEF20001086840F470000860BFF34F8F3A
:1039C000BFF36F8F4FF00070E1EE100A70470000F8
:1039D00095FCFFFF6C0300001004002000000000B5
:1039E00031FFFFFF0C000000280100000000002054
:1039F000000000006163695F676174745F696E69EC
:103A0000742829202D2D3E20535543434553530DF3
:103A10000A0000006163695F6761705F696E6974C5
:103A20002829202D2D3E20535543434553530D0A3D
:103A3000000000000201061AFF30000215E20A39F8
:103A4000F473F54BC4A12F17D1AD07A96100000095
:103A500000C800007047FEE770477047704780B5A8
:103A600000F006F801BD80B50120FEF78AFA01BD1D
:103A70000348006803490978401801490860704705
:103A8000740700200800002000F00BF8002801D087
:103A9000FFF754FF0020C046C046FFF7A8FA00F029
:103AA00002F80120704700F001B8000007463846D0
:103AB00000F002F8FBE7000080B5C046C046024AAD
:103AC00011001820ABBEFBE72600020038B5044603
:103AD0000D462846FEF720F9A84218BF00242046CC
:103AE00032BD0000000000000000000001020304DD
:103AF000060708090148804701480047A935000822
:103B0000053B0008C046C046FFF750FFFFF7BCFF6B
:103B1000100000000024F40001000000F50000E1A6
:103B200080020000312E302E300000000B0000001B
:103B3000000000000A00000000000000000000007B
:103B400001020304E8030000FFF7FEBFFFF7FEBF1A
:103B5000FFF7FEBFFFF7FEBFFFF7FEBFFFF7FEBF99
:103B6000FFF7FEBFFFF7FEBFFFF7FEBFFFF7FEBF89
:103B7000FFF7FEBFFFF7FEBFFFF7FEBFFFF7FEBF79
:103B8000FFF7FEBFFFF7FEBFFFF7FEBFFFF7FEBF69
:103B9000FFF7FEBFFFF7FEBFFFF7FEBFFFF7FEBF59
:103BA000FFF7FEBFFFF7FEBFFFF7FEBFFFF7FEBF49
:103BB000FFF7FEBFFFF7FEBFFFF7FEBFFFF7FEBF39
:103BC000FFF7FEBFFFF7FEBFFFF7FEBFFFF7FEBF29
:103BD000FFF7FEBFFFF7FEBFFFF7FEBFFFF7FEBF19
:103BE000FFF7FEBFFFF7FEBFFFF7FEBFFFF7FEBF09
:103BF000FFF7FEBFFFF7FEBFFFF7FEBFFFF7FEBFF9
:103C0000FFF7FEBFFFF7FEBFFFF7FEBFFFF7FEBFE8
:103C1000FFF7FEBFFFF7FEBFFFF7FEBFFFF7FEBFD8
:103C2000FFF7FEBFFFF7FEBFFFF7FEBFFFF7FEBFC8
:0400000508003B05AF
:00000001FF
